{
  "genesis": {
    "nonce": "0x0",
    "timestamp": "0x58ee40ba",
    "extraData": "0xf87aa00000000000000000000000000000000000000000000000000000000000000000f854947d3542b69ee39be63a4cc6bf957a2ded5e1ba0b6941fca631ac89e313db2b948cce5fad7b7d4b97e7894e47d72993849a82d7cc9bbc0922f88023cc7f1f9942aa2413093516655e43fdadc0a3963d1f065c09fc080c0",
    "gasLimit": "0x1fffffffffffff",
    "gasUsed": "0x0",
    "number": "0x0",
    "difficulty": "0x1",
    "coinbase": "0x0000000000000000000000000000000000000000",
    "mixHash": "0x63746963616c2062797a616e74696e65206661756c7420746f6c6572616e6365",
    "parentHash": "0x0000000000000000000000000000000000000000000000000000000000000000",
    "config": {
      "chainId": 2222,
      "homesteadBlock": 0,
      "eip150Block": 0,
      "eip150Hash": "0x0000000000000000000000000000000000000000000000000000000000000000",
      "eip155Block": 0,
      "eip158Block": 0,
      "byzantiumBlock": 0,
      "constantinopleBlock": 0,
      "petersburgBlock": 0,
      "istanbulBlock": 0,
      "muirglacierblock": 0,
      "berlinBlock": 0,
      "londonBlock": 0,
      "zeroBaseFee": true,
      "qbft": {
        "blockperiodseconds": 2,
        "epochlength": 30000,
        "requesttimeoutseconds": 20
      }
    },
    "alloc": {
      "0x7d3542b69ee39be63a4cc6bf957a2ded5e1ba0b6": {
        "balance": "1000000000000000000000000000"
      },
      "0x1fca631ac89e313db2b948cce5fad7b7d4b97e78": {
        "balance": "1000000000000000000000000000"
      },
      "e47d72993849a82d7cc9bbc0922f88023cc7f1f9": {
        "balance": "1000000000000000000000000000"
      },
      "0x2aa2413093516655e43fdadc0a3963d1f065c09f": {
        "balance": "1000000000000000000000000000"
      }
    }
  },
  "blockchain": {
    "nodes": {
      "generate": true,
      "count": 1
    }
  }
}
